:03000000020447B0
:1000030085303485313585323685333722E530C541
:1000130034F530E531C535F531E532C536F532E530
:1000230033C537F53322C0E0C0D0C000C001C002E1
:10003300E4F53CF53DF53EF53FF5407A20E533A286
:10004300E779047830E633F608D9FA7905783CE69F
:1000530036D4F608D9F9DAE5D002D001D000D0D0F1
:10006300D0E022C0E0C0D0C000C001C002E4F53C33
:10007300F53DF53EF53FF5407A20E533A2E77904F7
:100083007830E633F608D9FA7905783CC0D0E6240F
:100093003320E70224D020E30224FDD0D033F60836
:1000A300D9EADAD6D002D001D000D0D0D0E022C035
:1000B300E0C0D0C000C001C0027A207905C37840F7
:1000C300E613C0D030E70224D030E30224FDF61853
:1000D300D0D0D9EC79047833E613F618D9FADADB01
:1000E300D002D001D000D0D0D0E022C0E0C0D0E513
:1000F300302534F530E5313535F531E5323536F532
:1001030032E5333537F533D0D0D0E022C0E0C0D06C
:10011300C3E5309534F530E5319535F531E5329564
:1001230036F532E5339537F533D0D0D0E022C0E051
:10013300C0D0C3E5309534E5319535E5329536E5E4
:100143003395379200D0D0D0E022C0E0C0D0C3E5D1
:10015300349530E5359531E5369532E5379533926B
:1001630000D0D0D0E022C0E0C0D0C200C3E53495B7
:10017300307014E5359531700EE53695327008E52B
:100183003795337002D200D0D0D0E022120169201B
:10019300000302014D2212016920000302013122F2
:1001A300C0E0C0F0C0D0C000C001C002C003E53051
:1001B3008534F0A4F8A9F0E5318534F0A429F9E4F5
:1001C30035F0FAE5308535F0A429F9E5F03AFAE49B
:1001D30033FBE5328534F0A42AFAE5F03BFBE53145
:1001E3008535F0A42AFAE5F03BFBE5308536F0A42B
:1001F3002AFAE5F03BFBE5338534F0A42BFBE5322B
:100203008535F0A42BFBE5318536F0A42BFBE530D7
:100213008537F0A42BFB8B338A3289318830D003A6
:10022300D002D001D000D0D0D0F0D0E022C0E0C0C6
:10023300F0C0D0C000C001C002C003E5308530F07B
:10024300A4F8A9F0E5318530F0A429F9E435F0FAF2
:10025300E5308531F0A429F9E5F03AFAE433FBE51A
:10026300328530F0A42AFAE5F03BFBE5318531F025
:10027300A42AFAE5F03BFBE5308532F0A42AFAE53F
:10028300F03BFBE5338530F0A42BFBE5328531F001
:10029300A42BFBE5318532F0A42BFBE5308533F04D
:1002A300A42BFB8B338A3289318830D003D002D020
:1002B30001D000D0D0D0F0D0E022120010C034C062
:1002C30035C036C03775300075310075320075336F
:1002D300007534017535007536007537001200EE70
:1002E300120230D037D036D035D03412018FC0341B
:1002F300C035C036C0372000030202D4D037D03611
:10030300D035D03475340175350075360075370036
:1003130012010F221203371201A312001012010F50
:10032300221201A3753464753500753600753700E4
:1003330012033722C0E0C0D0C000C001C002C00316
:10034300C0047C20E4F8F9FAFBC3E53033F530E56B
:100353003133F531E53233F532E53333F533E83311
:10036300F8E933F9EA33FAEB33FBC3E89534E9955B
:1003730035EA9536EB95374013E89534F8E995352A
:10038300F9EA9536FAEB9537FB433001DCBBD00431
:0D039300D003D002D001D000D0D0D0E022A5
:1003A000C0F9A4B0999282F880909003A0E53C54E3
:1003B0000F93F591E53CC4540F93F592E53D540F2E
:1003C00093F593E53DC4540F93F594E53E540F9394
:1003D000F58EE53EC4540F93F58F227804C3E53CB7
:1003E00033F53CE53D33F53DE53E33F53EE53F3342
:1003F000F53FE54033F540D8E4EF453CF53CE4F506
:100400004022781E794A7AFADAFED9FAD8F622AC76
:10041000E8E5955403FDEC4D602B120402E5E8C3BA
:100420009C7022E5955403C39D701A7F10C3EC3372
:10043000FCED33FD4004DFF5800B1FD3E5E870FCD5
:10044000E59570FC22C32275817FE4F5E8F595F50A
:100450003CF53DF53EF53FF5401203AA75F001D29B
:10046000E885F0E812040F50061203DB1203AA20FD
:10047000FB1430FBFDE5F075F002A4F5F0B480E16B
:1004800075F00102046120FA1E30FAFD1200B2126A
:1004900000037530007531007532007533001200AD
:1004A000291203AA02046120F9B730F9FD1200B243
:1004B000E5F0B401061200EE0204EEB402061201E9
:1004C0000F0204EEB404061201A30204EEB40806FF
:1004D0001203370204EEB410061203170204EEB43E
:1004E00020061203240204EE1202BD0204EE1200E2
:0704F000291203AA020461B6
:00000001FF
