:0300000002046C8B
:1000030085303485313585323685333722E530C541
:1000130034F530E531C535F531E532C536F532E530
:1000230033C537F53322C0E0C0D0C000C001C002E1
:10003300E4F53CF53DF53EF53FF5407A20E533A286
:10004300E779047830E633F608D9FA7905783CE69F
:1000530036D4F608D9F9DAE5D002D001D000D0D0F1
:10006300D0E022C0E0C0D0C000C001C002E4F53C33
:10007300F53DF53EF53FF5407A20E533A2E77904F7
:100083007830E633F608D9FA7905783CC0D0E6240F
:100093003320E70224D020E30224FDD0D033F60836
:1000A300D9EADAD6D002D001D000D0D0D0E022C035
:1000B300E0C0D0C000C001C0027A207905C37840F7
:1000C300E613C0D030E70224D030E30224FDF61853
:1000D300D0D0D9EC79047833E613F618D9FADADB01
:1000E300D002D001D000D0D0D0E022C0E0C0D0E513
:1000F300302534F530E5313535F531E5323536F532
:1001030032E5333537F533D0D0D0E022C0E0C0D06C
:10011300C3E5309534F530E5319535F531E5329564
:1001230036F532E5339537F533D0D0D0E022C0E051
:10013300C0D0C3E5309534E5319535E5329536E5E4
:100143003395379200D0D0D0E022C0E0C0D0C3E5D1
:10015300349530E5359531E5369532E5379533926B
:1001630000D0D0D0E022C0E0C0D0C200C3E53495B7
:10017300307014E5359531700EE53695327008E52B
:100183003795337002D200D0D0D0E022120169201B
:10019300000302014D2212016920000302013122F2
:1001A300C0E0C0F0C0D0C000C001C002C003E53051
:1001B3008534F0A4F8A9F0E5318534F0A429F9E4F5
:1001C30035F0FAE5308535F0A429F9E5F03AFAE49B
:1001D30033FBE5328534F0A42AFAE5F03BFBE53145
:1001E3008535F0A42AFAE5F03BFBE5308536F0A42B
:1001F3002AFAE5F03BFBE5338534F0A42BFBE5322B
:100203008535F0A42BFBE5318536F0A42BFBE530D7
:100213008537F0A42BFB8B338A3289318830D003A6
:10022300D002D001D000D0D0D0F0D0E022C0E0C0C6
:10023300F0C0D0C000C001C002C003E5308530F07B
:10024300A4F8A9F0E5318530F0A429F9E435F0FAF2
:10025300E5308531F0A429F9E5F03AFAE433FBE51A
:10026300328530F0A42AFAE5F03BFBE5318531F025
:10027300A42AFAE5F03BFBE5308532F0A42AFAE53F
:10028300F03BFBE5338530F0A42BFBE5328531F001
:10029300A42BFBE5318532F0A42BFBE5308533F04D
:1002A300A42BFB8B338A3289318830D003D002D020
:1002B30001D000D0D0D0F0D0E0228530388531395C
:1002C30085323A85333B75300075310075320075E0
:1002D300330075340175350075360075370012002B
:1002E300EEC030C031C032C033120230853834859D
:1002F3003935853A36853B3712018FD033D032D02A
:1003030031D0302000030202D575340175350075F4
:10031300360075370012010F22C030C031C032C021
:1003230033C034C035C036C03712035CD037D03643
:10033300D035D0341201A3120003D033D032D031E0
:10034300D03012010F221201A37534647535007584
:10035300360075370012035C22C0E0C0D0C000C075
:1003630001C002C003C0047C20E4F8F9FAFBC3E532
:100373003033F530E53133F531E53233F532E533FA
:1003830033F533E833F8E933F9EA33FAEB33FBC3F4
:10039300E89534E99535EA9536EB95374013E895BA
:1003A30034F8E99535F9EA9536FAEB9537FB43309E
:1003B30001DCBBD004D003D002D001D000D0D0D018
:0203C300E02236
:1003C500C0F9A4B0999282F880909003C5E53C5499
:1003D5000F93F591E53CC4540F93F592E53D540F09
:1003E50093F593E53DC4540F93F594E53E540F936F
:1003F500F58EE53EC4540F93F58F227804C3E53C92
:1004050033F53CE53D33F53DE53E33F53EE53F331C
:10041500F53FE54033F540D8E4EF453CF53CE4F5E0
:100425004022781E794A7AFADAFED9FAD8F622AC51
:10043500E8E5955403FDEC4D602B120427E5E8C370
:100445009C7022E5955403C39D701A7F10C3EC334D
:10045500FCED33FD4004DFF5800B1FD3E5E870FCB0
:10046500E59570FC22C32275817FE4F5E8F595F5E5
:100475003CF53DF53EF53FF5401203CF75F001D251
:10048500E885F0E812043450061204001203CF2068
:10049500FB1430FBFDE5F075F002A4F5F0B480E146
:1004A50075F00102048620FA1E30FAFD1200B21220
:1004B5000003753000753100753200753300120088
:1004C500291203CF02048620F9B730F9FD1200B2D4
:1004D500E5F0B401061200EE020513B4020612019E
:1004E5000F020513B404061201A3020513B408068E
:1004F50012035C020513B4100612031C020513B4A3
:1005050020061203490205131202BD02051312004B
:07051500291203CF02048646
:00000001FF
