:030000000203CE2A
:10000300C0E0C0D0C000C001C002E4F53CF53DF53E
:100013003EF53FF5407A20E533A2E779047830E6F0
:1000230033F608D9FA7905783CE636D4F608D9F9D7
:10003300DAE5D002D001D000D0D0D0E022C0E0C0B9
:10004300D0C000C001C002E4F53CF53DF53EF53FEC
:10005300F5407A20E533A2E779047830E633F608F1
:10006300D9FA7905783CC0D0E6243320E70224D0BE
:1000730020E30224FDD0D033F608D9EADAD6D00241
:10008300D001D000D0D0D0E022C0E0C0D0C000C0AA
:1000930001C0027A207905C37840E613C0D030E767
:1000A3000224D030E30224FDF618D0D0D9EC790431
:1000B3007833E613F618D9FADADBD002D001D00090
:1000C300D0D0D0E022C0E0C0D0E5302534F530E513
:1000D300313535F531E5323536F532E5333537F53A
:1000E30033D0D0D0E022C0E0C0D0C3E5309534F5A2
:1000F30030E5319535F531E5329536F532E5339511
:1001030037F533D0D0D0E022C0E0C0D0C3E530957E
:1001130034E5319535E5329536E53395379200D0A0
:10012300D0D0E022C0E0C0D0C3E5349530E53595AA
:1001330031E5369532E53795339200D0D0D0E022C1
:10014300C0E0C0D0C200C3E53495307014E53595E6
:1001530031700EE53695327008E53795337002D26B
:1001630000D0D0D0E0221201432000030201272255
:1001730012014320000302010B22C0E0C0F0C0D0F3
:10018300C000C001C002C003E5308534F0A4F8A963
:10019300F0E5318534F0A429F9E435F0FAE530854A
:1001A30035F0A429F9E5F03AFAE433FBE532853476
:1001B300F0A42AFAE5F03BFBE5318535F0A42AFAF1
:1001C300E5F03BFBE5308536F0A42AFAE5F03BFB8E
:1001D300E5338534F0A42BFBE5328535F0A42BFB06
:1001E300E5318536F0A42BFBE5308537F0A42BFBF6
:1001F3008B338A3289318830D003D002D001D000CA
:10020300D0D0D0F0D0E022C0E0C0F0C0D0C000C059
:1002130001C002C003E5308530F0A4F8A9F0E53150
:100223008530F0A429F9E435F0FAE5308531F0A4FE
:1002330029F9E5F03AFAE433FBE5328530F0A42AF4
:10024300FAE5F03BFBE5318531F0A42AFAE5F03B12
:10025300FBE5308532F0A42AFAE5F03BFBE5338574
:1002630030F0A42BFBE5328531F0A42BFBE531857F
:1002730032F0A42BFBE5308533F0A42BFB8B338AC0
:100283003289318830D003D002D001D000D0D0D011
:10029300F0D0E02222C0E0C0D0C000C001C002C044
:1002A30003C0047C20E4F8F9FAFBC3E53033F530EE
:1002B300E53133F531E53233F532E53333F533E800
:1002C30033F8E933F9EA33FAEB33FBC3E89534E95E
:1002D3009535EA9536EB95374013E89534F8E9956B
:1002E30035F9EA9536FAEB9537FB433001DCBBD0A1
:1002F30004D003D002D001D000D0D0D0E02285308A
:100303003485313585323685333722E530C534F5CA
:1003130030E531C535F531E532C536F532E533C55E
:0403230037F5332255
:10032700C0F9A4B0999282F88090900327E53C54D5
:100337000F93F591E53CC4540F93F592E53D540FA7
:1003470093F593E53DC4540F93F594E53E540F930D
:10035700F58EE53EC4540F93F58F227804C3E53C30
:1003670033F53CE53D33F53DE53E33F53EE53F33BB
:10037700F53FE54033F540D8E4EF453CF53CE4F57F
:100387004022781E794A7AFADAFED9FAD8F622ACF0
:10039700E8E5955403FDEC4D602B120389E5E8C3AE
:1003A7009C7022E5955403C39D701A7F10C3EC33EC
:1003B700FCED33FD4004DFF5800B1FD3E5E870FC4F
:1003C700E59570FC22C32275817FE4F5E8F595F584
:1003D7003CF53DF53EF53FF54012033175F001D28E
:1003E700E885F0E820FB1430FBFDE5F075F002A48A
:1003F700F5F0B480EC75F0010203E820FA1E30FA3C
:10040700FD12008C12030175300075310075320042
:100417007533001200031203310203E820F9C230DA
:10042700F9FD12008CE5F0B401061200C80204645D
:10043700B402061200E9020464B4040612017D0244
:100447000464B40806120298020464B41003020498
:1004570064B42003020464120297020464120003C6
:060467001203310203E85C
:00000001FF
