:1000000002001040027810124000197F8986C74014
:1000100075817F75E80075950079647A647B5AF57F
:10002000F0900003740293F591E5F0F5F090000371
:10003000740393F592E5F0F5F0900003740493F5E2
:1000400093E5F0F5F0900003740593F594E5F0F571
:10005000F0900003740693F58EE5F0F5F090000340
:10006000740793F58FE5F020FB030200700202B2E3
:10007000A8E8E85407B4004BF5F09000037402932D
:10008000F591E5F0F5F0900003740393F592E5F037
:10009000F5F0900003740493F593E5F0F5F090000B
:1000A00003740593F594E5F0F5F09000037406935E
:1000B000F58EE5F0F5F0900003740793F58FE5F009
:1000C0000202B2B40163F5F0900003740893F59155
:1000D000E5F0F5F0900003740893F592E5F0F5F083
:1000E000900003740893F593E5F0F5F09000037425
:1000F0000893F594E5F0F5F0900003740893F58EFD
:10010000E5F0F5F0900003740893F58FE5F0F5F055
:10011000900003740093F591E5F0F5F090000374FE
:100120000193F592E5F00202B2B4024BF5F09000B3
:1001300003740293F591E5F0F5F0900003740393D6
:10014000F592E5F0F5F0900003740493F593E5F073
:10015000F5F0900003740593F594E5F0F5F0900048
:1001600003740693F58EE5F0F5F0900003740793A1
:10017000F58FE5F00202B2B4034BF5F09000037482
:100180000293F591E5F0F5F0900003740393F59276
:10019000E5F0F5F0900003740493F593E5F0F5F0C5
:1001A000900003740593F594E5F0F5F09000037466
:1001B0000693F58EE5F0F5F0900003740793F58F44
:1001C000E5F00202B2B4044BF5F090000374009322
:1001D000F591E5F0F5F0900003740193F592E5F0E8
:1001E000F5F0900003740293F593E5F0F5F09000BC
:1001F00003740393F594E5F0F5F090000374049311
:10020000F58EE5F0F5F0900003740593F58FE5F0B9
:100210000202B2B4054BF5F0900003740893F59117
:10022000E5F0F5F0900003740893F592E5F0F5F031
:10023000900003740893F593E5F0F5F090000374D3
:100240000893F594E5F0F5F0900003740893F58EAB
:10025000E5F0F5F0900003740893F58FE5F00202E5
:10026000B2B4064BF5F0900003740893F591E5F0F5
:10027000F5F0900003740C93F592E5F0F5F0900022
:1002800003740B93F593E5F0F5F0900003740B9372
:10029000F594E5F0F5F0900003740A93F58EE5F01F
:1002A000F5F0900003740993F58FE5F00202B202B5
:1002B00002B2D90C7964DA087A64DB047B5AB2E8BA
:0302C000020067D2
:00000001FF
