:100000000200114002781012400019919293948ED0
:100010008F75817F75E80075950079FA7AFA7BB45F
:10002000E5F87002A8E8D90C79FADA087AFADB0464
:100030007BB4B2E87900F5F0900003E993F591E51F
:10004000F009F5F0900003E993F592E5F009F5F079
:10005000900003E993F593E5F009F5F0900003E9CA
:1000600093F594E5F009F5F0900003E993F58EE53A
:10007000F009F5F0900003E993F58FE5F002002018
:00000001FF
