:1000000002001040027810124000197F8986C74014
:1000100075817F75E80075950079647A647B9690A8
:100020000003740093FC900003740193FD9000039F
:10003000740293F591900003740393F5929000037A
:10004000740493F593900003740593F59490000362
:10005000740693F58E900003740793F58F20FB03CD
:10006000020066020254E5E85407F8B80041900027
:1000700003740093FC900003740193FD90000374DB
:100080000293F591900003740393F592900003742A
:100090000493F593900003740593F5949000037412
:1000A0000693F58E900003740793F58F020254B8FF
:1000B0000143900003740893F59190000374089332
:1000C000F592900003740893F593900003740893DD
:1000D000F594900003740893F58E900003740893D0
:1000E000F58F900003740093F591900003740193D1
:1000F000F592020254B80241900003740093FC9000
:100100000003740193FD900003740293F591900035
:1001100003740393F592900003740493F593900095
:1001200003740593F594900003740693F58E900084
:1001300003740793F58F020254B8034190000374CF
:100140000093FC900003740193FD900003740293EC
:10015000F591900003740393F59290000374049357
:10016000F593900003740593F5949000037406933F
:10017000F58E900003740793F58F020254B804358E
:10018000900003740093F591900003740193F5922D
:10019000900003740293F593900003740393F59415
:1001A000900003740493F58E900003740593F58F0B
:1001B0007C00020254B80533900003740893F59153
:1001C000900003740893F592900003740893F593DC
:1001D000900003740893F594900003740893F58ECF
:1001E000900003740893F58F020254B80633900010
:1001F00003740893F591900003740C93F5929000AA
:1002000003740B93F593900003740B93F594900093
:1002100003740A93F58E900003740993F58F02021C
:1002200054900003740093F591900003740193F5CA
:1002300092900003740293F593900003740493F575
:1002400094900003740593F58E900003740793F562
:100250008F020254D90D7964DA097A64DB057B9642
:10026000020266020320B2E8B8021B8DF0ECFDAC7E
:100270008F858E8F85948E859394859293859192A8
:1002800085F091020320B8031B8591F0859291853A
:100290009392859493858E94858F8E8C8FEDFCAD93
:1002A000F0020320B8046DBC00359000037408937D
:1002B000F591900003740893F592900003740893ED
:1002C000F593900003740893F594900003740893D9
:1002D000F58E900003740893F58F7C010203209043
:1002E0000003740093F591900003740193F59290CC
:1002F0000003740293F593900003740393F59490B4
:100300000003740493F58E900003740593F58F7CBD
:1003100000020320B80503020320B80603020320ED
:0303200002005D7B
:00000001FF
