:100000000200C940027810124000197F8986C7405B
:10001000C68CC8B0F9A4BC0043900003740093FCE4
:10002000900003740193FD900003740293F5919086
:100030000003740393F592900003740493F5939076
:100040000003740593F594900003740693F58E9065
:100050000003740793F58F7C010203DBBC0135902C
:100060000003741293F591900003741193F592902C
:100070000003741093F593900003740F93F594901C
:100080000003740E93F58E900003740D93F58F7C2E
:10009000020203DB900003740893F591900003744F
:1000A0000C93F592900003740B93F59390000374F6
:1000B0000B93F594900003740A93F58E90000374EB
:1000C0000993F58F7C000203DB75817F75E800756D
:1000D000950079647A647B96900003740093FC9099
:1000E0000003740193FD900003740293F591900056
:1000F00003740393F592900003740493F5939000B6
:1001000003740593F594900003740693F58E9000A4
:1001100003740793F58F20FB0302011F02030FE511
:10012000E85407F8B80041900003740093FC900075
:1001300003740193FD900003740293F59190000302
:10014000740393F592900003740493F59390000365
:10015000740593F594900003740693F58E90000354
:10016000740793F58F02030FB801439000037408DE
:1001700093F591900003740893F59290000374082E
:1001800093F593900003740893F59490000374081A
:1001900093F58E900003740893F58F90000374001C
:1001A00093F591900003740193F59202030FB80246
:1001B00041900003740093FC900003740193FD9040
:1001C0000003740293F591900003740393F59290E9
:1001D0000003740493F593900003740593F59490D1
:1001E0000003740693F58E900003740793F58F0255
:1001F000030FB80341900003740093FC9000037454
:100200000193FD900003740293F591900003740331
:1002100093F592900003740493F593900003740592
:1002200093F594900003740693F58E900003740781
:1002300093F58F02030FB80435900003740093F513
:1002400091900003740193F592900003740293F56A
:1002500093900003740393F594900003740493F552
:100260008E900003740593F58F7C0002030FB80590
:1002700033900003740893F591900003740893F58C
:1002800092900003740893F593900003740893F51B
:1002900094900003740893F58E900003740893F50E
:1002A0008F02030FB80635900003740893F5919000
:1002B0000003740C93F592900003740B93F59390E4
:1002C0000003740B93F594900003740A93F58E90D9
:1002D0000003740993F58F7C0002030F90000374F0
:1002E0000093F591900003740193F59290000374CC
:1002F0000293F593900003740493F59490000374B3
:100300000593F58E900003740793F58F02030FD9C0
:100310000D7964DA097A64DB057B96020321020316
:10032000DBB2E8B8021B8DF0ECFDAC8F858E8F85BB
:10033000948E85939485929385919285F091020392
:10034000DBB8031B8591F0859291859392859493F8
:10035000858E94858F8E8C8FEDFCADF00203DBB81B
:10036000046DBC0035900003740893F59190000370
:10037000740893F592900003740893F5939000032A
:10038000740893F594900003740893F58E9000031D
:10039000740893F58F7C010203DB900003740093D3
:1003A000F591900003740193F59290000374029309
:1003B000F593900003740393F594900003740493F1
:1003C000F58E900003740593F58F7C000203DBB873
:0E03D00005030203DBB8060302001602011645
:00000001FF
