:1000000002015240027810124000197F8986C740D1
:10001000C68CC8B0F9A4BC0043900003740093FCE4
:10002000900003740193FD900003740293F5919086
:100030000003740393F592900003740493F5939076
:100040000003740593F594900003740693F58E9065
:100050000003740793F58F7C01020467BC0135909F
:100060000003741293F591900003741193F592902C
:100070000003741093F593900003740F93F594901C
:100080000003740E93F58E900003740D93F58F7C2E
:1000900002020467900003740893F59190000374C2
:1000A0000C93F592900003740B93F59390000374F6
:1000B0000B93F594900003740A93F58E90000374EB
:1000C0000993F58F7C00020467BC00339000037431
:1000D0000893F591900003740893F59290000374CF
:1000E0000893F593900003740893F59490000374BB
:1000F0000893F58E900003740893F58F020467BC93
:10010000010B900003740793F58F020467BC020B88
:10011000900003740693F58E020467BC030B9000F5
:1001200003740593F594020467BC040B90000374F8
:100130000493F593020467BC050B900003740393CA
:10014000F592020467900003740293F5917CFF021C
:10015000046775817F75E80075950079647A647B22
:1001600096900003740093FC900003740193FD903B
:100170000003740293F591900003740393F5929039
:100180000003740493F593900003740593F5949021
:100190000003740693F58E900003740793F58F2087
:1001A000FB030201A802039AE5E85407F8B80041EE
:1001B000900003740093FC900003740193FD900081
:1001C00003740293F591900003740393F5929000E9
:1001D00003740493F593900003740593F5949000D1
:1001E00003740693F58E900003740793F58F020352
:1001F0009AB80143900003740893F591900003743A
:100200000893F592900003740893F593900003749B
:100210000893F594900003740893F58E900003748E
:100220000893F58F900003740093F5919000037488
:100230000193F59202039AB802419000037400936F
:10024000FC900003740193FD900003740293F591F8
:10025000900003740393F592900003740493F59354
:10026000900003740593F594900003740693F58E43
:10027000900003740793F58F02039AB8034190002E
:1002800003740093FC900003740193FD90000374C9
:100290000293F591900003740393F5929000037418
:1002A0000493F593900003740593F5949000037400
:1002B0000693F58E900003740793F58F02039AB8A6
:1002C0000435900003740093F5919000037401933A
:1002D000F592900003740293F593900003740393D6
:1002E000F594900003740493F58E900003740593C5
:1002F000F58F7C0002039AB80535900003740893CB
:10030000F591900003740893F5929000037408939C
:10031000F593900003740893F59490000374089388
:10032000F58E900003740893F58F7C0002039AB851
:100330000635900003740893F591900003740C93B4
:10034000F592900003740B93F593900003740B9354
:10035000F594900003740A93F58E9000037409934A
:10036000F58F7C0002039A900003740093F591903E
:100370000003740193F592900003740293F5939037
:100380000003740493F594900003740593F58E9024
:100390000003740793F58F02039AD90D7964DA0983
:1003A0007A64DB057B960203AC020467B2E8B8020C
:1003B0001B8DF0ECFDAC8F858E8F85948E8593948C
:1003C00085929385919285F091020467B8031B850D
:1003D00091F0859291859392859493858E94858FE3
:1003E0008E8C8FEDFCADF0020467B8046DBC003557
:1003F000900003740893F591900003740893F592AC
:10040000900003740893F593900003740893F59497
:10041000900003740893F58E900003740893F58F91
:100420007C01020467900003740093F5919000032F
:10043000740193F592900003740293F59390000376
:10044000740393F594900003740493F58E90000365
:10045000740593F58F7C00020467B805040C020054
:0A046000C9B8060302001602019F4E
:00000001FF
