:100000000200C940027810124000197F8986C7405B
:100010008686C7868686BC0043900003740093FCE6
:10002000900003740193FD900003740293F5919086
:100030000003740393F592900003740493F5939076
:100040000003740593F594900003740693F58E9065
:100050000003740793F58F7C010203D9BC0135902E
:100060000003740893F591900003740893F592903F
:100070000003740893F593900003740893F594902B
:100080000003740893F58E900003740893F58F7C39
:10009000020203D9900003740893F5919000037451
:1000A0000C93F592900003740B93F59390000374F6
:1000B0000B93F594900003740A93F58E90000374EB
:1000C0000993F58F7C000203D975817F75E800756F
:1000D000950079647A647B96900003740093FC9099
:1000E0000003740193FD900003740293F591900056
:1000F00003740393F592900003740493F5939000B6
:1001000003740593F594900003740693F58E9000A4
:1001100003740793F58F20FB0302011F02030DE513
:10012000E85407F8B80041900003740093FC900075
:1001300003740193FD900003740293F59190000302
:10014000740393F592900003740493F59390000365
:10015000740593F594900003740693F58E90000354
:10016000740793F58F02030DB801439000037408E0
:1001700093F591900003740893F59290000374082E
:1001800093F593900003740893F59490000374081A
:1001900093F58E900003740893F58F90000374001C
:1001A00093F591900003740193F59202030DB80248
:1001B00041900003740093FC900003740193FD9040
:1001C0000003740293F591900003740393F59290E9
:1001D0000003740493F593900003740593F59490D1
:1001E0000003740693F58E900003740793F58F0255
:1001F000030DB80341900003740093FC9000037456
:100200000193FD900003740293F591900003740331
:1002100093F592900003740493F593900003740592
:1002200093F594900003740693F58E900003740781
:1002300093F58F02030DB80435900003740093F515
:1002400091900003740193F592900003740293F56A
:1002500093900003740393F594900003740493F552
:100260008E900003740593F58F7C0002030DB80592
:1002700033900003740893F591900003740893F58C
:1002800092900003740893F593900003740893F51B
:1002900094900003740893F58E900003740893F50E
:1002A0008F02030DB80633900003740893F5919004
:1002B0000003740C93F592900003740B93F59390E4
:1002C0000003740B93F594900003740A93F58E90D9
:1002D0000003740993F58F02030D900003740093DB
:1002E000F591900003740193F592900003740293CA
:1002F000F593900003740493F594900003740593B0
:10030000F58E900003740793F58F02030DD90D79D4
:1003100064DA097A64DB057B9602031F0203D9B213
:10032000E8B8021B8DF0ECFDAC8F858E8F85948E26
:1003300085939485929385919285F0910203D9B823
:10034000031B8591F0859291859392859493858E78
:1003500094858F8E8C8FEDFCADF00203D9B8046DBF
:10036000BC0035900003740893F591900003740865
:1003700093F592900003740893F59390000374082A
:1003800093F594900003740893F58E90000374081D
:1003900093F58F7C010203D9900003740093F591CB
:1003A000900003740193F592900003740293F59307
:1003B000900003740393F594900003740493F58EF6
:1003C000900003740593F58F7C000203D9B80503F0
:0C03D0000203D9B8060302001602011651
:00000001FF
