:1000000002000C40027810124000197F75817F7544
:10001000E80075950079647A647B5AF5F0900003E6
:10002000740293F591E5F0F5F0900003740393F5F5
:1000300092E5F0F5F0900003740493F593E5F0F584
:10004000F0900003740593F594E5F0F5F09000034B
:10005000740693F58EE5F0F5F0900003740793F5C0
:100060008FE5F020FB0302006C02012EA8E8E854A3
:1000700007B4004BF5F0900003740293F591E5F09E
:10008000F5F0900003740393F592E5F0F5F090001D
:1000900003740493F593E5F0F5F090000374059371
:1000A000F594E5F0F5F0900003740693F58EE5F015
:1000B000F5F0900003740793F58FE5F002012EB47C
:1000C000014BF5F0900003740093F591E5F0F5F025
:1000D000900003740193F592E5F0F5F0900003743D
:1000E0000893F593E5F0F5F0900003740893F59408
:1000F000E5F0F5F0900003740893F58EE5F0F5F067
:10010000900003740893F58FE5F002012EB402030A
:1001100002012EB4030302012EB4040302012EB423
:10012000050302012EB4060302012E02012ED90C92
:0F0130007964DA087A64DB047B5AB2E802006370
:00000001FF
