:1000000002001040027810124000197F8986C74014
:1000100075817F75E80075950079647A647B96F543
:10002000F0900003740093FCE5F0F5F09000037489
:100030000193FDE5F0F5F0900003740293F591E56E
:10004000F0F5F0900003740393F592E5F0F5F0906D
:100050000003740493F593E5F0F5F0900003740544
:1000600093F594E5F0F5F0900003740693F58EE5B2
:10007000F0F5F0900003740793F58FE5F020FB0393
:10008000020086020352E5E85407F8B80061F5F073
:10009000900003740093FCE5F0F5F0900003740108
:1000A00093FDE5F0F5F0900003740293F591E5F00F
:1000B000F5F0900003740393F592E5F0F5F09000ED
:1000C00003740493F593E5F0F5F090000374059341
:1000D000F594E5F0F5F0900003740693F58EE5F0E5
:1000E000F5F0900003740793F58FE5F0020352B822
:1000F0000163F5F0900003740893F591E5F0F5F0D5
:10010000900003740893F592E5F0F5F09000037405
:100110000893F593E5F0F5F0900003740893F594D7
:10012000E5F0F5F0900003740893F58EE5F0F5F036
:10013000900003740893F58FE5F0F5F090000374D8
:100140000093F591E5F0F5F0900003740193F592BA
:10015000E5F0020352B80261F5F0900003740093D9
:10016000FCE5F0F5F0900003740193FDE5F0F5F087
:10017000900003740293F591E5F0F5F0900003749C
:100180000393F592E5F0F5F0900003740493F59372
:10019000E5F0F5F0900003740593F594E5F0F5F0C3
:1001A000900003740693F58EE5F0F5F0900003746B
:1001B0000793F58FE5F0020352B80361F5F0900064
:1001C00003740093FCE5F0F5F0900003740193FDD7
:1001D000E5F0F5F0900003740293F591E5F0F5F089
:1001E000900003740393F592E5F0F5F0900003742A
:1001F0000493F593E5F0F5F0900003740593F594FE
:10020000E5F0F5F0900003740693F58EE5F0F5F057
:10021000900003740793F58FE5F0020352B8044B86
:10022000F5F0900003740093F591E5F0F5F090007F
:1002300003740193F592E5F0F5F0900003740293D6
:10024000F593E5F0F5F0900003740393F594E5F071
:10025000F5F0900003740493F58EE5F0F5F090004E
:1002600003740593F58FE5F0020352B8054BF5F0E2
:10027000900003740893F591E5F0F5F09000037495
:100280000893F592E5F0F5F0900003740893F59368
:10029000E5F0F5F0900003740893F594E5F0F5F0BF
:1002A000900003740893F58EE5F0F5F09000037468
:1002B0000893F58FE5F0020352B8064BF5F0900075
:1002C00003740893F591E5F0F5F0900003740C9336
:1002D000F592E5F0F5F0900003740B93F593E5F0DB
:1002E000F5F0900003740B93F594E5F0F5F09000B1
:1002F00003740A93F58EE5F0F5F09000037409930A
:10030000F58FE5F0020352F5F0900003740093F5C9
:1003100091E5F0F5F0900003740193F592E5F0F5A6
:10032000F0900003740293F593E5F0F5F09000036C
:10033000740493F594E5F0F5F0900003740593F5DB
:100340008EE5F0F5F0900003740793F58FE5F00269
:100350000352D95A7964DA567A64DB527B96B2E852
:10036000B8021B8DF0ECFDAC8F858E8F85948E8549
:10037000939485929385919285F0910203AEB80390
:100380001B8591F0859291859392859493858E94A7
:10039000858F8E8C8FEDFCADF00203AEB8040302A6
:1003A00003AEB805030203AEB806030203AE0200B3
:0103B0007DCF
:00000001FF
