:1000000002002040792430191202780010080346BB
:1000100021060E7AB479FA78F9D8FED9FADAF622FE
:1000200075817F75E8007595007B127C597D48903D
:100030000003EB540F93F58EEBC4540F93F58F90A0
:100040000003EC540F93F593ECC4540F93F5949084
:100050000003ED540F93F591EDC4540F93F59220E6
:10006000FB02ABE820FA02ACE820F902ADE8E59526
:1000700020E1BC120013ED2401D4FDB460B17D0079
:10008000EC2401D4FCB460A77C00EB2401D4FBB4C5
:07009000139D7B0102002F0C
:00000001FF
